:020000040000FA
:060000008A110A12052816
:1000080009005B210F2183160313061186110612BE
:100018008612851505148514851686108312031318
:10002800861085150615061686118612A00123224C
:100038002A08B50003303502B1008330F5001A30C4
:10004800F6003108F900FA01A1227508B300760814
:10005800B40004303302B1003408B2000030031C8D
:100068000130B2023108F5003208F6000530F90017
:10007800FA01A1227508B5000130A00023222A0840
:10008800B60003303602B1008330F5001A30F600AE
:100098003108F900FA01A1227508B3007608B40006
:1000A80004303302B1003408B2000030031C0130C0
:1000B800B2023108F5003208F6000530F900FA01FD
:1000C800A1227508B6000430A00023222A08A20045
:1000D800E920A501A401B421E830F2000130F300C1
:1000E8000830F7000330F800E522E830AD000130B1
:1000F800AE00CC213508A600EE210130A500A401F0
:10010800B421E830F2000130F3001030F70003307A
:10011800F800E522E830AD000130AE00CC21360809
:10012800A600EE213508F9000A30F5008622F0090C
:100138007008B1003508F9000430F500862231084E
:100148007005B300331CB828E830F2000130F30022
:100158001730F7000330F800E522E830AD00013031
:10016800AE00CC215C22CB283608193C0318BE28E7
:100178002C23CB283608143C0318C4281F23CB286B
:100188000A3036020318CA283923CB286E221A28C7
:100198006300CC282C1108182C1583160313881714
:1001A80083120313081088140815DA28AC13881B67
:1001B800AC170811DF28081500000811E328AC1B4C
:1001C800D82808102C190814080008100130A300BA
:1001D80078210430F200F30101218030A300782156
:1001E8002130F000F00BF62808000530F000F00B85
:1001F800FB280000F50BF9280800F30A0430F10089
:10020800A530F000F00B0629F10B0429F20B0229A6
:10021800F30B022908003230F200F30101218316A2
:10022800031388108312031388108316031308120C
:100238008812081388130810081183120313081072
:10024800081188130813881608162A292B29081557
:100258002D29000008110A30F200F30101210330B2
:10026800B00008153729000008110130F200F30129
:100278000121B00B35298813081388160812442960
:10028800452908154729000008114230F000F00BF5
:100298004B2900002830A30078210630A3007821DC
:1002A8000C30A3007821E9200C30A8000800703039
:1002B800831603138F048F308F050F178F160F16B1
:1002C8009F13831203131F108316031788018901D4
:1002D800831203178813871383120313850186017A
:1002E8008701880189010800CE208810831603132E
:1002F8000812881208138813831203138813A31B88
:1003080088170813231B08178812A31A88160812BF
:10031800231A08168F290815000008118813A31935
:1003280088170813231908178812A31888160812A3
:10033800231808169F290815000008112630F00018
:10034800F00BA42900000818B32910302302031861
:10035800B3292308073C0318B3292308A800080079
:1003680008102508013C0318BD290230A5021430E5
:10037800A4072508F5004030F900D92224087007A1
:10038800B10080303104A30078210530F500F92848
:100398002D08840083132E1883170008A900A908C4
:1003A8000319080008140130AF002F082D07840036
:1003B80083132E1883170008A30078212F08290219
:1003C800B100F500F9017522F009701CED29AF0A9A
:1003D800D9290800A701081464302602031C012A41
:1003E8002608F5006430F9008D227508A70070080A
:1003F800A60030302707A30078212708F900F50167
:1004080086227008B1002608F5000A30F900862215
:10041800F00931087004B300331C1F2A2608F500C0
:100428000A30F9008D227508A7007008A600303040
:100438002707A300782130302607A30078298316E0
:1004480003139F138316031788018901831203136B
:10045800200AA100031483160317880D890D83123F
:100468000313A10B2F2A9F131F171F119F111F1270
:100478009F1220181F15A0189F1520191F16A019C4
:100488009F161F140230F500F9209F1400009F18D2
:100498004B2A1F108316031788018901831203133F
:1004A8001E08AA00831603139F1383120313080060
:1004B8000611061286158616EE30F2000230F30099
:1004C80001218611861206150612F430F200013059
:1004D800F3000129061506160A30F200F30101217E
:1004E8000800F001750879020319F0090800F00105
:1004F80075087902031D080076087A02031D0800B2
:10050800F0090800F001031479087502031CF009CA
:100518000800F90803190800F0010830F400031076
:10052800F50DF00D7908F002751403189E2A751060
:100538007908F007F40B932A08007508F700760885
:10054800F8007908FB007A08FC00F201F3017B0847
:10055800F5007C08F600F901FA017B22701CB72A25
:10056800F501F60108001030F4000310F70DF80D3E
:10057800F20DF30D7B08F2027C08031C7C0FF302DA
:1005880077140318CE2A77107B08F2077C08031823
:100598007C0FF307F40BB92A7708F5007808F60002
:1005A8007208F0007308F1000800F0017508791866
:1005B800F0070310F90C0310F50DF908031DDA2AEA
:1005C8000800720884008313731883170123F50049
:1005D8008000F207F82A72088400831373188317BF
:1005E8000123F500F607F207F508031908000123AF
:1005F800840A8000F50BFB2A080078088A0077082F
:10060800F70A0319F80A82000734463472346F3443
:100618006E3474343A34203406344C3465346634D9
:1006280074343A34203407345234653476346534BB
:10063800723473346534061106160530F200F3017E
:100648000121061506160530F200F3010121080004
:10065800061106160F30F200F301012106150616E1
:100668000130F200F30101210800061506120530D9
:10067800F200F3010121061506160530F200F30118
:060688000121080008003A
:04400E00D42FFF3F6D
:00000001FF
